:100000000EC028C027C026C025C024C023C022C0DF
:1000100021C020C01FC01EC01DC01CC01BC0112499
:100020001FBECFE5D2E0DEBFCDBF10E0A0E6B0E05E
:10003000E8EBF5E002C005900D92AE36B107D9F7B6
:1000400020E0AEE6B0E001C01D92AF36B207E1F7A6
:1000500003D2B0C2D5CFCF93DF9300D0CDB7DEB7F8
:100060009EE4998388608A8362E0CE010196C1D1C3
:100070000F900F90DF91CF9108950F931F93CF931F
:10008000DF9300D0CDB7DEB7182F0EE409838C6064
:100090008A8362E0CE010196ACD182E08A95F1F7C5
:1000A00000C009831B7F18601A8362E0CE010196AD
:1000B000A0D185E88A95F1F700000F900F90DF91AD
:1000C000CF911F910F910895BF92CF92DF92EF923F
:1000D000FF920F931F93CF93DF9300D0CDB7DEB77E
:1000E000B62EE82EF12CC12CD12C0EE497010C2C4D
:1000F00001C0220F0A94EAF7207F122F1B290983DF
:10010000812F88608A8362E0CE01019672D10983D3
:10011000812F8C608A8362E0CE0101966AD182E0F1
:100120008A95F1F700C009831B7F18601A8362E08B
:10013000CE0101965ED185E88A95F1F7000084E052
:10014000C80ED11C88E0C816D10481F60F900F901C
:10015000DF91CF911F910F91FF90EF90DF90CF90A3
:10016000BF9008953F924F925F926F927F928F92CD
:100170009F92AF92BF92CF92DF92EF92FF920F9336
:100180001F93CF93DF9300D000D0CDB7DEB7462EBC
:10019000512C612C712C411451046104710409F437
:1001A00045C08B839C83812C912C54010EE4EB8100
:1001B000FC81C190FC83EB83D12CE12CF12CC60196
:1001C0000E2C01C0880F0A94EAF7182F107F0983BC
:1001D000F12FF9603F2EFA8362E0CE01019609D13A
:1001E00009831D601A8362E0CE01019602D182E08C
:1001F0008A95F1F700C009833A8262E0CE01019648
:10020000F8D0E5E8EA95F1F70000F4E0EF0EF11C14
:1002100088E0E816F10499F6EFEF8E1A9E0AAE0A0E
:10022000BE0A84149504A604B70408F20F900F9038
:100230000F900F90DF91CF911F910F91FF90EF9052
:10024000DF90CF90BF90AF909F908F907F906F90F6
:100250005F904F903F900895C09AC29ABA9AB89A08
:100260008FEF8FB98AE28DB980EF8EB908958091B2
:100270006E00089521E020936E00FC01208120FD96
:1002800003C023E020936E00C29AB29BFECFF2E03F
:10029000FA95F1F70000C09822E02A95F1F70000E6
:1002A000C298C09A779905C087E080936E0080E07D
:1002B0000895FC0150EF8BE22FEF3EEF90916E001E
:1002C000937009F43FC0C29890819FB95EB994E0E1
:1002D0009A95F1F700008DB9B29BFECF92E09A9506
:1002E000F1F700008DB9769BF2CF94E09A95F1F783
:1002F00000009FB12FB9B89AB8983EB994E09A958A
:10030000F1F700008DB9B29BFECF92E09A95F1F71C
:1003100000008DB9769BF2CF94E09A95F1F700003A
:100320009FB12FB9B89A90FD55C090916E009E7FF5
:1003300090936E00615031966111C0CF411136C06B
:1003400081E00895B8985EB994E09A95F1F70000BD
:100350008DB9B29BFECF92E09A95F1F700008DB96E
:10036000769BF2CF94E09A95F1F700009FB12FB9F8
:10037000B89A90836130C1F01FB83EB994E09A9565
:10038000F1F700008DB9B29BFECF92E09A95F1F79C
:1003900000008DB9769BF2CF94E09A95F1F70000BA
:1003A0009FB12FB9B89AC6CF2FB9E7CFC098C29ADC
:1003B000B29BFECFE2E0EA95F1F70000C09AF4E0CC
:1003C000FA95F1F700007599BBCF88E080936E0035
:1003D00081E0089590916E00892F817090FF05C093
:1003E00086E080936E0080E0089595E090936E0023
:1003F000089541E03FCF8EB98BE294E09A95F1F7F2
:1004000000008DB9B29BFECF92E09A95F1F7000003
:100410008DB9769BF2CF84E08A95F1F700008FB119
:100420009FEF9FB9B89A0895C098C29AB29BFECF29
:1004300082E08A95F1F70000C09A84E08A95F1F78E
:1004400000009EB1892F807295FD04C098E09093C2
:100450006E00089581E008957F928F929F92AF92EF
:10046000BF92CF92DF92EF92FF920F931F93CF93A1
:10047000DF9300D0CDB7DEB7EFDE2FE788E391E062
:10048000215080409040E1F700C000001EE4198335
:1004900008E30A8362E0CE010196ABDF80E3EDDD85
:1004A000E7E2F3E23197F1F700C0000019830A8315
:1004B00062E0CE0101969DDF80E3DFDD8BE291E01B
:1004C0000197F1F700C00000198388E28A8362E097
:1004D000CE0101968EDF80E2D0DD60E088E2F4DDBF
:1004E00060E08FE0F1DD60E086E0EEDD60E081E07D
:1004F000EBDDEFE9FFE03197F1F700C0000060E0CD
:1005000082E0E2DD8FE99FE00197F1F700C0000093
:1005100080E6C82E80E0D82E9CE6A92E90E0B92E69
:100520000EE4F601E1906F01F12C812C912CC701B2
:10053000082C01C0880F0A94EAF7182F107F09834E
:10054000F12FF9607F2EFA8362E0CE01019651DF30
:100550000983812F8D608A8362E0CE01019649DF95
:1005600022E02A95F1F700C009837A8262E0CE0189
:1005700001963FDF85E88A95F1F7000094E0890E47
:10058000911CE8E08E16910491F6AC14BD0449F676
:1005900080E090E00F900F90DF91CF911F910F912D
:1005A000FF90EF90DF90CF90BF90AF909F908F9093
:0805B0007F900895F894FFCF3D
:0E05B80048656C6C6F20776F726C64210000D8
:00000001FF
